:100000000C945E000C9486000C9486000C94860080
:100010000C9486000C9486000C9486000C94860048
:100020000C9486000C9486000C9486000C94860038
:100030000C9486000C9486000C9486000C94860028
:100040000C9437030C9486000C9405030C94DF0287
:100050000C9486000C9486000C9486000C94860008
:100060000C9486000C948600000000080002010039
:100070000003040700000000000000000000000072
:10008000250028002B0000000000240027002A0083
:10009000040404040404040402020202020203032E
:1000A0000303030301020408102040800102040836
:1000B00010200102040810208103350611241FBE00
:1000C000CFEFD8E0DEBFCDBF21E0A2E2B1E001C0BA
:1000D0001D92A23DB207E1F711E0A0E0B1E0ECE132
:1000E000F1E102C005900D92A232B107D9F710E0FC
:1000F000CDE5D0E004C02197FE010E948106CC35F9
:10010000D107C9F70E94F7030C9481080C940000F2
:100110002091CC013091CD018217930760F420919A
:10012000C8013091C9012115310529F0280F391F67
:10013000F9018081089580E008950895AF92BF92FB
:10014000CF92DF92EF92FF920F931F93CF93DF93A3
:100150006C017B018B01040F151FEB015E01AE18D2
:10016000BF08C017D10759F06991D601ED91FC91F4
:100170000190F081E02DC6010995892B79F7C50121
:10018000DF91CF911F910F91FF90EF90DF90CF9073
:10019000BF90AF900895FC01538D448D252F30E022
:1001A000842F90E0821B930B541710F0CF96089584
:1001B00001970895FC01918D828D981761F0A28DB1
:1001C000AE0FBF2FB11D5D968C91928D9F5F9F7377
:1001D000928F90E008958FEF9FEF08952FB7F894D6
:1001E0008091270190912801A0912901B0912A01C5
:1001F0002FBF8093330190933401A0933501B093C6
:1002000036018BE291E00E94DA0097FF26C02FB7FB
:10021000F8948091270190912801A0912901B09133
:100220002A012FBF40913301509134016091350173
:1002300070913601841B950BA60BB70B40912F01D3
:10024000509130016091310170913201841795070E
:10025000A607B707B0F28FEF9FEF0895FC01918DCD
:10026000828D981731F0828DE80FF11D858D90E019
:1002700008958FEF9FEF0895FC01918D228D892FB6
:1002800090E0805C9F4F821B91098F73992708959E
:100290008BE291E00E943C0121E0892B09F420E0EF
:1002A000822F089580E090E0892B29F00E94480178
:1002B00081110C9400000895FC01A48DA80FB92FA2
:1002C000B11DA35ABF4F2C91848D90E001968F737E
:1002D0009927848FA689B7892C93A089B1898C919D
:1002E000837080648C93938D848D981306C00288EC
:1002F000F389E02D80818F7D80830895EF92FF92B6
:100300000F931F93CF93DF93EC0181E0888F9B8D38
:100310008C8D98131AC0E889F989808185FF15C0F2
:100320009FB7F894EE89FF896083E889F989808115
:100330008370806480839FBF81E090E0DF91CF91E4
:100340001F910F91FF90EF900895F62E0B8D10E006
:100350000F5F1F4F0F731127E02E8C8D8E110CC075
:100360000FB607FCFACFE889F989808185FFF5CFC0
:10037000CE010E945C01F1CFEB8DEC0FFD2FF11D42
:10038000E35AFF4FF0829FB7F8940B8FEA89FB89FD
:1003900080818062CFCFCF93DF93EC01888D88235B
:1003A000B9F0AA89BB89E889F9898C9185FD03C0D8
:1003B000808186FD0DC00FB607FCF7CF8C9185FFBD
:1003C000F2CF808185FFEDCFCE010E945C01E9CFA5
:1003D000DF91CF91089590E0FC01E859FF4F2491FF
:1003E000FC01EC55FF4F3491FC01E057FF4FE491C5
:1003F000EE23C9F0222339F0233001F1A8F4213093
:1004000019F1223029F1F0E0EE0FFF1FE458FF4F01
:10041000A591B4918FB7F894EC91611126C03095F5
:100420003E233C938FBF08952730A9F02830C9F0B0
:10043000243049F7809180008F7D03C08091800037
:100440008F7780938000DFCF84B58F7784BDDBCF3B
:1004500084B58F7DFBCF8091B0008F778093B00003
:10046000D2CF8091B0008F7DF9CF3E2BDACF3FB74E
:10047000F8948091230190912401A0912501B091DD
:10048000260126B5A89B05C02F3F19F00196A11D96
:10049000B11D3FBFBA2FA92F982F8827BC01CD01CE
:1004A000620F711D811D911D42E0660F771F881F2D
:1004B000991F4A95D1F708958F929F92AF92BF925C
:1004C000CF92DF92EF92FF926B017C010E94370284
:1004D0004B015C01C114D104E104F104B9F00E94A4
:1004E0003702681979098A099B09683E73408105BA
:1004F000910580F321E0C21AD108E108F10888EEE5
:10050000880E83E0981EA11CB11CE4CFFF90EF90F1
:10051000DF90CF90BF90AF909F908F90089561E053
:1005200087E00E94EB016EE071E080E090E00E94C5
:100530005C0260E087E00E94EB016AE570E080E029
:1005400090E00C945C0261E087E00E94EB016AE5B8
:1005500070E080E090E00E945C0260E087E00E9432
:10056000EB016AE570E080E090E00C945C020F9390
:100570001F93CF93DF93EC0188819981009759F005
:100580002A813B812617370730F081E0DF91CF9138
:100590001F910F9108958B016F5F7F4F0E94AC07F1
:1005A000009759F0998388831B830A832C813D81AE
:1005B000232B59F7FC011082E8CF80E0E7CF1F9290
:1005C0000F920FB60F9211242F933F934F935F9387
:1005D0006F937F938F939F93AF93BF93EF93FF930B
:1005E0008BE291E00E945C01FF91EF91BF91AF918E
:1005F0009F918F917F916F915F914F913F912F913B
:100600000F900FBE0F901F9018951F920F920FB66C
:100610000F9211242F938F939F93EF93FF93E09169
:100620003B01F0913C018081E0914101F091420158
:1006300082FD1BC09081809144018F5F8F73209158
:100640004501821741F0E0914401F0E0E55DFE4F85
:10065000958F80934401FF91EF919F918F912F91FE
:100660000F900FBE0F901F9018958081F4CF1F92AE
:100670000F920FB60F9211242F933F938F939F9356
:10068000AF93BF938091270190912801A0912901F8
:10069000B0912A013091220123E0230F2D3758F524
:1006A0000196A11DB11D20932201809327019093F3
:1006B0002801A0932901B0932A01809123019091F0
:1006C0002401A0912501B09126010196A11DB11D23
:1006D0008093230190932401A0932501B0932601D8
:1006E000BF91AF919F918F913F912F910F900FBE2E
:1006F0000F901F90189526E8230F0296A11DB11D9B
:10070000D2CF10922E0110922D0188EE93E0A0E03E
:10071000B0E080932F0190933001A0933101B0930A
:1007200032018AE091E090932C0180932B0185ECBB
:1007300090E0909338018093370184EC90E090939F
:100740003A018093390180EC90E090933C018093D2
:100750003B0181EC90E090933E0180933D0182EC5F
:1007600090E09093400180933F0186EC90E090935D
:100770004201809341011092440110924501109270
:100780004601109247011092C9011092C8011092BF
:10079000CB011092CA011092CD011092CC0170E0F1
:1007A00060E088EC91E00E94B7022091C80130918E
:1007B000C901811113C02115310519F0C9010E9429
:1007C00023071092C9011092C8011092CD01109216
:1007D000CC011092CB011092CA0108951092CD0164
:1007E0001092CC0161E271E0C9010C947A08CF93B8
:1007F000DF93CDB7DEB728970FB6F894DEBF0FBEF4
:10080000CDBF789484B5826084BD84B5816084BD99
:1008100085B5826085BD85B5816085BD80916E009E
:10082000816080936E0010928100809181008260CF
:10083000809381008091810081608093810080910C
:1008400080008160809380008091B10084608093FB
:10085000B1008091B00081608093B00080917A00F7
:10086000846080937A0080917A00826080937A001D
:1008700080917A00816080937A0080917A0080680C
:1008800080937A001092C100E0913B01F0913C010D
:1008900082E08083E0913701F09138011082E0918D
:1008A0003901F0913A018FEC808310924301E0917D
:1008B0003F01F091400186E08083E0913D01F0919D
:1008C0003E01808180618083E0913D01F0913E0195
:1008D000808188608083E0913D01F0913E018081BC
:1008E00080688083E0913D01F0913E0180818F7DA1
:1008F0008083EBEAF0E02491E7E9F0E0849188233B
:1009000099F090E0880F991FFC01EA57FF4FA591DD
:10091000B491FC01E458FF4F859194918FB7F894FE
:10092000EC91E22BEC938FBF80E0C82E80E0D82EB4
:100930008BE291E00E943C01892B09F48AC11A8262
:1009400019821C821B821E821D8270E060E0CE0133
:1009500001960E94B70229813A8181112BC021158D
:10096000310519F0C9010E9423071A8219821E82DB
:100970001D821C821B820E94EE0097FD23C08F8384
:1009800018860D811E810F5F1F4FB801CE010196A1
:100990000E94B702882379F329813A818D819E8153
:1009A000BE01695F7F4F820F931F0E947A081E83EA
:1009B0000D83E1CF1E821D8261E271E0C9010E94B8
:1009C0007A08D9CF8091C8019091C901009709F4A4
:1009D0004FC069817A816115710509F447C0409162
:1009E000CA015091CB012D813E8142175307F0F18E
:1009F0000E947A088D819E819093CD018093CC01D5
:100A00001E821D8289819A81009711F00E9423071E
:100A100049E050E068E171E08BE291E00E949E00C5
:100A20004091CC015091CD016091C8017091C901F4
:100A30008BE291E00E949E000091C8011091C901D3
:100A40000115110561F5F12CE12C8091CC019091FB
:100A5000CD01E816F90608F0FCC0C7010E94880025
:100A6000182F813451F50E94A30283C00E942307EE
:100A700089819A819093C9018093C8018B819C815F
:100A80009093CB018093CA018D819E819093CD017B
:100A90008093CC011A8219821C821B82B1CFF8018B
:100AA00081918F01882379F2082E000C990B0E9406
:100AB0006908F80131978083F2CF823419F40E94DB
:100AC0008F0252C0833429F40E948F020E94A30235
:100AD00034C0843419F40E948F0216C0853419F48E
:100AE0000E94A30274C0863419F40E94A302EECFC0
:100AF000873419F40E948F0220C0883419F40E94B0
:100B0000A30232C0893419F40E94A302E9CF8A34C7
:100B100019F40E94A30216C08B3419F40E948F02AC
:100B2000A2CF8C3419F40E94A302D5CF8D3419F4CE
:100B30000E948F021EC08E3419F40E948F02D0CF03
:100B40008F3419F40E948F02F3CF803519F40E947C
:100B5000A302D0CF813519F40E948F02DFCF8235F6
:100B600009F4B4CF833519F40E94A302CDCF8435A4
:100B700019F40E948F022BC0853519F40E94A3023C
:100B800072CF863519F40E94A302F8CF873519F485
:100B90000E94A302CDCF883519F40E948F02EECFB8
:100BA000893519F40E948F02F3CF8A3519F40E9417
:100BB0008F0291CF082E000C990B0E943E06892BC4
:100BC00081F062EC71E080E090E00E945C0264EBF6
:100BD00070E080E090E00E945C02FFEFEF1AFF0AF5
:100BE00034CF113329F40E94A3020E948F02AACFAE
:100BF000123319F40E94A3028CCF133329F40E94FC
:100C0000A3020E94A302C4CF143319F40E94A302CA
:100C1000BACF153319F40E94A30271CF163319F419
:100C20000E948F026CCF173319F40E948F0247CFB6
:100C3000183319F40E948F02BACF193329F40E9495
:100C40008F020E948F0256CF103309F60E948F0246
:100C5000CCCFC114D10409F46BCE0E944801882383
:100C600009F466CE0E94000063CE8091C801909185
:100C7000C901009711F00C942307089591110C9469
:100C80004706803219F089508550C8F70895992792
:100C9000882708952F923F924F925F926F927F9292
:100CA0008F929F92AF92BF92CF92DF92EF92FF927C
:100CB0000F931F93CF93DF93CDB7DEB7CA1BDB0B28
:100CC0000FB6F894DEBF0FBECDBF09942A883988CD
:100CD00048885F846E847D848C849B84AA84B984D4
:100CE000C884DF80EE80FD800C811B81AA81B981E0
:100CF000CE0FD11D0FB6F894DEBF0FBECDBFED01F4
:100D00000895EE0FFF1F0590F491E02D09940F93C5
:100D10001F93CF93DF938230910510F482E090E02F
:100D2000E091D001F091D10130E020E0B0E0A0E00E
:100D3000309799F42115310509F44AC0281B390B65
:100D400024303105D8F58A819B816115710589F1BF
:100D5000FB0193838283FE0111C040815181028196
:100D6000138148175907E0F04817590799F410976D
:100D700061F012960C93129713961C933296CF0142
:100D8000DF91CF911F910F9108950093D00110939F
:100D9000D101F4CF2115310551F04217530738F036
:100DA000A901DB019A01BD01DF01F801C1CFEF010B
:100DB000F9CF9093D1018093D001CDCFFE01E20F06
:100DC000F31F819391932250310939832883D7CF20
:100DD0002091CE013091CF01232B41F420910201CB
:100DE000309103013093CF012093CE012091000177
:100DF000309101012115310541F42DB73EB74091E5
:100E0000040150910501241B350BE091CE01F091B6
:100E1000CF01E217F307A0F42E1B3F0B2817390769
:100E200078F0AC014E5F5F4F2417350748F04E0F46
:100E30005F1F5093CF014093CE01819391939FCF39
:100E4000F0E0E0E09CCFCF93DF930097E9F0FC0166
:100E5000329713821282A091D001B091D101ED019D
:100E600030E020E01097A1F420813181820F931FA0
:100E70002091CE013091CF012817390709F061C0C8
:100E8000F093CF01E093CE01DF91CF910895EA0175
:100E9000CE17DF07E8F54A815B819E0141155105B8
:100EA000B1F7E901FB83EA8349915991C40FD51F3A
:100EB000EC17FD0761F4808191810296840F951FE4
:100EC000E90199838883828193819B838A83F0E0FF
:100ED000E0E012968D919C9113970097B9F52D91B2
:100EE0003C911197CD010296820F931F2091CE0164
:100EF0003091CF012817390739F6309751F5109204
:100F0000D1011092D001B093CF01A093CE01BCCFFC
:100F1000D383C28340815181840F951FC817D9079D
:100F200061F44E5F5F4F88819981480F591F51834B
:100F300040838A819B81938382832115310509F047
:100F4000B0CFF093D101E093D0019ECFFD01DC0141
:100F5000C0CF13821282D7CFB0E0A0E0E2EBF7E07F
:100F60000C944C068C01009751F4CB010E9487062B
:100F70008C01C801CDB7DEB7E0E10C946806FC0136
:100F8000E60FF71F9C0122503109E217F30708F41E
:100F90009DC0D901CD91DC911197C617D70798F064
:100FA000C530D10530F3CE0104978617970708F3B3
:100FB000C61BD70B2297C193D1936D937C93CF011E
:100FC0000E942307D6CF5B01AC1ABD0A4C018C0EE0
:100FD0009D1EA091D001B091D101512C412CF12C3A
:100FE000E12C109731F58091CE019091CF018815B9
:100FF000990509F05CC04616570608F058C0809164
:10100000000190910101009741F48DB79EB7409186
:10101000040150910501841B950BE817F90708F0AE
:1010200055C0F093CF01E093CE01F9017183608345
:10103000A0CF8D919C91119712966C901297139658
:101040007C901397A815B90559F56C0142E0C40EC0
:10105000D11CCA14DB0420F1AC014A195B09DA0186
:101060001296159780F06282738251834083D90172
:101070006D937C93E114F10471F0D7011396FC9306
:10108000EE93129776CF22968C0F9D1FF9019183D4
:101090008083F301EFCFF093D101E093D00169CFCA
:1010A0004816590608F42C017D01D3019ACFCB01D3
:1010B0000E9487067C01009749F0AE01B8010E94AA
:1010C0007108C8010E942307870153CF10E000E098
:1010D00050CF9111089581568A5108F48052855855
:1010E0000895FB01DC0102C001900D924150504077
:1010F000D8F70895FB01DC0101900D920020E1F783
:10110000089510E0CDE5D0E004C0FE010E94810604
:0C1110002196CE35D107C9F7F894FFCF27
:10111C000000D2018000000000007E019E00CB0088
:10112C00CB013C01DA002E01596F752073616964A3
:02113C00200091
:00000001FF
